{
  "contractName": "SupplyChain",
  "abi": [
    {
      "inputs": [],
      "payable": true,
      "stateMutability": "payable",
      "type": "constructor"
    },
    {
      "anonymous": false,
      "inputs": [
        {
          "indexed": false,
          "name": "upc",
          "type": "uint256"
        }
      ],
      "name": "Harvested",
      "type": "event"
    },
    {
      "anonymous": false,
      "inputs": [
        {
          "indexed": false,
          "name": "upc",
          "type": "uint256"
        }
      ],
      "name": "Processed",
      "type": "event"
    },
    {
      "anonymous": false,
      "inputs": [
        {
          "indexed": false,
          "name": "upc",
          "type": "uint256"
        }
      ],
      "name": "Bottled",
      "type": "event"
    },
    {
      "anonymous": false,
      "inputs": [
        {
          "indexed": false,
          "name": "upc",
          "type": "uint256"
        }
      ],
      "name": "ForSale",
      "type": "event"
    },
    {
      "anonymous": false,
      "inputs": [
        {
          "indexed": false,
          "name": "upc",
          "type": "uint256"
        }
      ],
      "name": "Sold",
      "type": "event"
    },
    {
      "anonymous": false,
      "inputs": [
        {
          "indexed": false,
          "name": "upc",
          "type": "uint256"
        }
      ],
      "name": "Shipped",
      "type": "event"
    },
    {
      "anonymous": false,
      "inputs": [
        {
          "indexed": false,
          "name": "upc",
          "type": "uint256"
        }
      ],
      "name": "Received",
      "type": "event"
    },
    {
      "anonymous": false,
      "inputs": [
        {
          "indexed": false,
          "name": "upc",
          "type": "uint256"
        }
      ],
      "name": "Purchased",
      "type": "event"
    },
    {
      "constant": false,
      "inputs": [],
      "name": "kill",
      "outputs": [],
      "payable": false,
      "stateMutability": "nonpayable",
      "type": "function"
    },
    {
      "constant": false,
      "inputs": [
        {
          "name": "_upc",
          "type": "uint256"
        },
        {
          "name": "_originFarmerID",
          "type": "address"
        },
        {
          "name": "_originFarmName",
          "type": "string"
        },
        {
          "name": "_originFarmInformation",
          "type": "string"
        },
        {
          "name": "_originFarmLatitude",
          "type": "string"
        },
        {
          "name": "_originFarmLongitude",
          "type": "string"
        },
        {
          "name": "_productNotes",
          "type": "string"
        }
      ],
      "name": "harvestOlives",
      "outputs": [],
      "payable": false,
      "stateMutability": "nonpayable",
      "type": "function"
    },
    {
      "constant": false,
      "inputs": [
        {
          "name": "_upc",
          "type": "uint256"
        }
      ],
      "name": "processOlives",
      "outputs": [],
      "payable": false,
      "stateMutability": "nonpayable",
      "type": "function"
    },
    {
      "constant": false,
      "inputs": [
        {
          "name": "_upc",
          "type": "uint256"
        }
      ],
      "name": "bottleOil",
      "outputs": [],
      "payable": false,
      "stateMutability": "nonpayable",
      "type": "function"
    },
    {
      "constant": false,
      "inputs": [
        {
          "name": "_upc",
          "type": "uint256"
        },
        {
          "name": "_price",
          "type": "uint256"
        }
      ],
      "name": "sellOil",
      "outputs": [],
      "payable": false,
      "stateMutability": "nonpayable",
      "type": "function"
    },
    {
      "constant": false,
      "inputs": [
        {
          "name": "_upc",
          "type": "uint256"
        }
      ],
      "name": "buyOil",
      "outputs": [],
      "payable": true,
      "stateMutability": "payable",
      "type": "function"
    },
    {
      "constant": false,
      "inputs": [
        {
          "name": "_upc",
          "type": "uint256"
        },
        {
          "name": "_fee",
          "type": "uint256"
        }
      ],
      "name": "addDistributorFee",
      "outputs": [],
      "payable": false,
      "stateMutability": "nonpayable",
      "type": "function"
    },
    {
      "constant": false,
      "inputs": [
        {
          "name": "_upc",
          "type": "uint256"
        }
      ],
      "name": "shipOil",
      "outputs": [],
      "payable": false,
      "stateMutability": "nonpayable",
      "type": "function"
    },
    {
      "constant": false,
      "inputs": [
        {
          "name": "_upc",
          "type": "uint256"
        }
      ],
      "name": "receiveOil",
      "outputs": [],
      "payable": true,
      "stateMutability": "payable",
      "type": "function"
    },
    {
      "constant": false,
      "inputs": [
        {
          "name": "_upc",
          "type": "uint256"
        },
        {
          "name": "_fee",
          "type": "uint256"
        }
      ],
      "name": "addRetailerFee",
      "outputs": [],
      "payable": false,
      "stateMutability": "nonpayable",
      "type": "function"
    },
    {
      "constant": false,
      "inputs": [
        {
          "name": "_upc",
          "type": "uint256"
        }
      ],
      "name": "purchaseOil",
      "outputs": [],
      "payable": true,
      "stateMutability": "payable",
      "type": "function"
    },
    {
      "constant": true,
      "inputs": [
        {
          "name": "_upc",
          "type": "uint256"
        }
      ],
      "name": "fetchItemBufferOne",
      "outputs": [
        {
          "name": "itemSKU",
          "type": "uint256"
        },
        {
          "name": "itemUPC",
          "type": "uint256"
        },
        {
          "name": "ownerID",
          "type": "address"
        },
        {
          "name": "originFarmerID",
          "type": "address"
        },
        {
          "name": "originFarmName",
          "type": "string"
        },
        {
          "name": "originFarmInformation",
          "type": "string"
        },
        {
          "name": "originFarmLatitude",
          "type": "string"
        },
        {
          "name": "originFarmLongitude",
          "type": "string"
        }
      ],
      "payable": false,
      "stateMutability": "view",
      "type": "function"
    },
    {
      "constant": true,
      "inputs": [
        {
          "name": "_upc",
          "type": "uint256"
        }
      ],
      "name": "fetchItemBufferTwo",
      "outputs": [
        {
          "name": "itemSKU",
          "type": "uint256"
        },
        {
          "name": "itemUPC",
          "type": "uint256"
        },
        {
          "name": "productID",
          "type": "uint256"
        },
        {
          "name": "productNotes",
          "type": "string"
        },
        {
          "name": "productPrice",
          "type": "uint256"
        },
        {
          "name": "distributorFee",
          "type": "uint256"
        },
        {
          "name": "retailerFee",
          "type": "uint256"
        },
        {
          "name": "productTotalPrice",
          "type": "uint256"
        },
        {
          "name": "itemState",
          "type": "uint256"
        },
        {
          "name": "distributorID",
          "type": "address"
        },
        {
          "name": "retailerID",
          "type": "address"
        },
        {
          "name": "consumerID",
          "type": "address"
        }
      ],
      "payable": false,
      "stateMutability": "view",
      "type": "function"
    }
  ],
  "bytecode": "0x6080604052336000806101000a81548173ffffffffffffffffffffffffffffffffffffffff021916908373ffffffffffffffffffffffffffffffffffffffff160217905550600160028190555060018081905550612b83806100626000396000f3fe6080604052600436106100c25760003560e01c806384fb4b881161007f578063bb136a2511610059578063bb136a251461093e578063d37e44c51461096c578063d4b757f6146109b1578063ed37e438146109ec576100c2565b806384fb4b881461057d5780638792bb6e146105ab57806399d84278146108f9576100c2565b80630b1176a2146100c75780631f0a41e41461010257806341c0e1b51461014757806366225ff91461015e57806377c45913146102e35780637b3a8cba1461054f575b600080fd5b3480156100d357600080fd5b50610100600480360360208110156100ea57600080fd5b8101908080359060200190929190505050610a27565b005b34801561010e57600080fd5b506101456004803603604081101561012557600080fd5b810190808035906020019092919080359060200190929190505050610c06565b005b34801561015357600080fd5b5061015c610dcb565b005b34801561016a57600080fd5b506101976004803603602081101561018157600080fd5b8101908080359060200190929190505050610e5c565b604051808d81526020018c81526020018b8152602001806020018a81526020018981526020018881526020018781526020018681526020018573ffffffffffffffffffffffffffffffffffffffff1673ffffffffffffffffffffffffffffffffffffffff1681526020018473ffffffffffffffffffffffffffffffffffffffff1673ffffffffffffffffffffffffffffffffffffffff1681526020018373ffffffffffffffffffffffffffffffffffffffff1673ffffffffffffffffffffffffffffffffffffffff16815260200182810382528b818151815260200191508051906020019080838360005b8381101561029d578082015181840152602081019050610282565b50505050905090810190601f1680156102ca5780820380516001836020036101000a031916815260200191505b509d505050505050505050505050505060405180910390f35b3480156102ef57600080fd5b5061031c6004803603602081101561030657600080fd5b81019080803590602001909291905050506110de565b604051808981526020018881526020018773ffffffffffffffffffffffffffffffffffffffff1673ffffffffffffffffffffffffffffffffffffffff1681526020018673ffffffffffffffffffffffffffffffffffffffff1673ffffffffffffffffffffffffffffffffffffffff16815260200180602001806020018060200180602001858103855289818151815260200191508051906020019080838360005b838110156103d85780820151818401526020810190506103bd565b50505050905090810190601f1680156104055780820380516001836020036101000a031916815260200191505b50858103845288818151815260200191508051906020019080838360005b8381101561043e578082015181840152602081019050610423565b50505050905090810190601f16801561046b5780820380516001836020036101000a031916815260200191505b50858103835287818151815260200191508051906020019080838360005b838110156104a4578082015181840152602081019050610489565b50505050905090810190601f1680156104d15780820380516001836020036101000a031916815260200191505b50858103825286818151815260200191508051906020019080838360005b8381101561050a5780820151818401526020810190506104ef565b50505050905090810190601f1680156105375780820380516001836020036101000a031916815260200191505b509c5050505050505050505050505060405180910390f35b61057b6004803603602081101561056557600080fd5b8101908080359060200190929190505050611475565b005b6105a96004803603602081101561059357600080fd5b8101908080359060200190929190505050611806565b005b3480156105b757600080fd5b506108f7600480360360e08110156105ce57600080fd5b8101908080359060200190929190803573ffffffffffffffffffffffffffffffffffffffff1690602001909291908035906020019064010000000081111561061557600080fd5b82018360208201111561062757600080fd5b8035906020019184600183028401116401000000008311171561064957600080fd5b91908080601f016020809104026020016040519081016040528093929190818152602001838380828437600081840152601f19601f820116905080830192505050505050509192919290803590602001906401000000008111156106ac57600080fd5b8201836020820111156106be57600080fd5b803590602001918460018302840111640100000000831117156106e057600080fd5b91908080601f016020809104026020016040519081016040528093929190818152602001838380828437600081840152601f19601f8201169050808301925050505050505091929192908035906020019064010000000081111561074357600080fd5b82018360208201111561075557600080fd5b8035906020019184600183028401116401000000008311171561077757600080fd5b91908080601f016020809104026020016040519081016040528093929190818152602001838380828437600081840152601f19601f820116905080830192505050505050509192919290803590602001906401000000008111156107da57600080fd5b8201836020820111156107ec57600080fd5b8035906020019184600183028401116401000000008311171561080e57600080fd5b91908080601f016020809104026020016040519081016040528093929190818152602001838380828437600081840152601f19601f8201169050808301925050505050505091929192908035906020019064010000000081111561087157600080fd5b82018360208201111561088357600080fd5b803590602001918460018302840111640100000000831117156108a557600080fd5b91908080601f016020809104026020016040519081016040528093929190818152602001838380828437600081840152601f19601f820116905080830192505050505050509192919290505050611b97565b005b34801561090557600080fd5b5061093c6004803603604081101561091c57600080fd5b810190808035906020019092919080359060200190929190505050611f63565b005b61096a6004803603602081101561095457600080fd5b8101908080359060200190929190505050612128565b005b34801561097857600080fd5b506109af6004803603604081101561098f57600080fd5b8101908080359060200190929190803590602001909291905050506124b9565b005b3480156109bd57600080fd5b506109ea600480360360208110156109d457600080fd5b81019080803590602001909291905050506126ce565b005b3480156109f857600080fd5b50610a2560048036036020811015610a0f57600080fd5b81019080803590602001909291905050506128ad565b005b8060016007811115610a3557fe5b60036000838152602001908152602001600020600e0160009054906101000a900460ff166007811115610a6457fe5b14610ad7576040517f08c379a000000000000000000000000000000000000000000000000000000000815260040180806020018281038252601b8152602001807f6974656d207374617465206973206e6f742070726f636573736564000000000081525060200191505060405180910390fd5b6003600083815260200190815260200160002060020160009054906101000a900473ffffffffffffffffffffffffffffffffffffffff168073ffffffffffffffffffffffffffffffffffffffff163373ffffffffffffffffffffffffffffffffffffffff1614610b92576040517f08c379a0000000000000000000000000000000000000000000000000000000008152600401808060200182810382526026815260200180612b326026913960400191505060405180910390fd5b600260036000858152602001908152602001600020600e0160006101000a81548160ff02191690836007811115610bc557fe5b02179055507f8aff1823bf9f30e2f7eacb17de47cc2917592a34188a0b47c0c228c82c38fc54836040518082815260200191505060405180910390a1505050565b8160066007811115610c1457fe5b60036000838152602001908152602001600020600e0160009054906101000a900460ff166007811115610c4357fe5b14610cb6576040517f08c379a000000000000000000000000000000000000000000000000000000000815260040180806020018281038252601a8152602001807f6974656d207374617465206973206e6f7420726563656976656400000000000081525060200191505060405180910390fd5b60036000848152602001908152602001600020600f0160009054906101000a900473ffffffffffffffffffffffffffffffffffffffff168073ffffffffffffffffffffffffffffffffffffffff163373ffffffffffffffffffffffffffffffffffffffff1614610d71576040517f08c379a0000000000000000000000000000000000000000000000000000000008152600401808060200182810382526026815260200180612b326026913960400191505060405180910390fd5b600060036000868152602001908152602001600020600d015490508360036000878152602001908152602001600020600c018190555083810160036000878152602001908152602001600020600d01819055505050505050565b6000809054906101000a900473ffffffffffffffffffffffffffffffffffffffff1673ffffffffffffffffffffffffffffffffffffffff163373ffffffffffffffffffffffffffffffffffffffff161415610e5a576000809054906101000a900473ffffffffffffffffffffffffffffffffffffffff1673ffffffffffffffffffffffffffffffffffffffff16ff5b565b60008060006060600080600080600080600080600360008e8152602001908152602001600020600001549b50600360008e8152602001908152602001600020600101549a50600360008e8152602001908152602001600020600801549950600360008e81526020019081526020016000206009018054600181600116156101000203166002900480601f016020809104026020016040519081016040528092919081815260200182805460018160011615610100020316600290048015610f645780601f10610f3957610100808354040283529160200191610f64565b820191906000526020600020905b815481529060010190602001808311610f4757829003601f168201915b50505050509850600360008e8152602001908152602001600020600a01549750600360008e8152602001908152602001600020600b01549650600360008e8152602001908152602001600020600c01549550600360008e8152602001908152602001600020600d01549450600360008e8152602001908152602001600020600e0160009054906101000a900460ff166007811115610ffe57fe5b9350600360008e8152602001908152602001600020600e0160019054906101000a900473ffffffffffffffffffffffffffffffffffffffff169250600360008e8152602001908152602001600020600f0160009054906101000a900473ffffffffffffffffffffffffffffffffffffffff169150600360008e815260200190815260200160002060100160009054906101000a900473ffffffffffffffffffffffffffffffffffffffff1690508b8b8b8b8b8b8b8b8b8b8b8b9b509b509b509b509b509b509b509b509b509b509b509b5091939597999b5091939597999b565b600080600080606080606080600360008a8152602001908152602001600020600001549750600360008a8152602001908152602001600020600101549650600360008a815260200190815260200160002060020160009054906101000a900473ffffffffffffffffffffffffffffffffffffffff169550600360008a815260200190815260200160002060030160009054906101000a900473ffffffffffffffffffffffffffffffffffffffff169450600360008a81526020019081526020016000206004018054600181600116156101000203166002900480601f0160208091040260200160405190810160405280929190818152602001828054600181600116156101000203166002900480156112385780601f1061120d57610100808354040283529160200191611238565b820191906000526020600020905b81548152906001019060200180831161121b57829003601f168201915b50505050509350600360008a81526020019081526020016000206005018054600181600116156101000203166002900480601f0160208091040260200160405190810160405280929190818152602001828054600181600116156101000203166002900480156112e95780601f106112be576101008083540402835291602001916112e9565b820191906000526020600020905b8154815290600101906020018083116112cc57829003601f168201915b50505050509250600360008a81526020019081526020016000206006018054600181600116156101000203166002900480601f01602080910402602001604051908101604052809291908181526020018280546001816001161561010002031660029004801561139a5780601f1061136f5761010080835404028352916020019161139a565b820191906000526020600020905b81548152906001019060200180831161137d57829003601f168201915b50505050509150600360008a81526020019081526020016000206007018054600181600116156101000203166002900480601f01602080910402602001604051908101604052809291908181526020018280546001816001161561010002031660029004801561144b5780601f106114205761010080835404028352916020019161144b565b820191906000526020600020905b81548152906001019060200180831161142e57829003601f168201915b50505050509050878787878787878797509750975097509750975097509750919395975091939597565b806005600781111561148357fe5b60036000838152602001908152602001600020600e0160009054906101000a900460ff1660078111156114b257fe5b14611525576040517f08c379a00000000000000000000000000000000000000000000000000000000081526004018080602001828103825260198152602001807f6974656d207374617465206973206e6f7420736869707065640000000000000081525060200191505060405180910390fd5b60036000838152602001908152602001600020600d0154803410156115b2576040517f08c379a00000000000000000000000000000000000000000000000000000000081526004018080602001828103825260188152602001807f7061696420616d6f756e7420696e73756666696369656e74000000000000000081525060200191505060405180910390fd5b82600660036000868152602001908152602001600020600e0160006101000a81548160ff021916908360078111156115e657fe5b0217905550336003600086815260200190815260200160002060020160006101000a81548173ffffffffffffffffffffffffffffffffffffffff021916908373ffffffffffffffffffffffffffffffffffffffff1602179055503360036000868152602001908152602001600020600f0160006101000a81548173ffffffffffffffffffffffffffffffffffffffff021916908373ffffffffffffffffffffffffffffffffffffffff16021790555060036000858152602001908152602001600020600e0160019054906101000a900473ffffffffffffffffffffffffffffffffffffffff1673ffffffffffffffffffffffffffffffffffffffff166108fc60036000878152602001908152602001600020600d01549081150290604051600060405180830381858888f19350505050158015611727573d6000803e3d6000fd5b507fa8142743f8f70a4c26f3691cf4ed59718381fb2f18070ec52be1f1022d855557846040518082815260200191505060405180910390a1600060036000838152602001908152602001600020600d01549050600081340390506003600084815260200190815260200160002060020160009054906101000a900473ffffffffffffffffffffffffffffffffffffffff1673ffffffffffffffffffffffffffffffffffffffff166108fc829081150290604051600060405180830381858888f193505050501580156117fd573d6000803e3d6000fd5b50505050505050565b806006600781111561181457fe5b60036000838152602001908152602001600020600e0160009054906101000a900460ff16600781111561184357fe5b146118b6576040517f08c379a000000000000000000000000000000000000000000000000000000000815260040180806020018281038252601a8152602001807f6974656d207374617465206973206e6f7420726563656976656400000000000081525060200191505060405180910390fd5b60036000838152602001908152602001600020600d015480341015611943576040517f08c379a00000000000000000000000000000000000000000000000000000000081526004018080602001828103825260188152602001807f7061696420616d6f756e7420696e73756666696369656e74000000000000000081525060200191505060405180910390fd5b82600760036000868152602001908152602001600020600e0160006101000a81548160ff0219169083600781111561197757fe5b0217905550336003600086815260200190815260200160002060020160006101000a81548173ffffffffffffffffffffffffffffffffffffffff021916908373ffffffffffffffffffffffffffffffffffffffff160217905550336003600086815260200190815260200160002060100160006101000a81548173ffffffffffffffffffffffffffffffffffffffff021916908373ffffffffffffffffffffffffffffffffffffffff16021790555060036000858152602001908152602001600020600f0160009054906101000a900473ffffffffffffffffffffffffffffffffffffffff1673ffffffffffffffffffffffffffffffffffffffff166108fc60036000878152602001908152602001600020600d01549081150290604051600060405180830381858888f19350505050158015611ab8573d6000803e3d6000fd5b507f653d56639fee6b566a5c804764e9689de38645f0b733df89a36a1b7b42173dd8846040518082815260200191505060405180910390a1600060036000838152602001908152602001600020600d01549050600081340390506003600084815260200190815260200160002060020160009054906101000a900473ffffffffffffffffffffffffffffffffffffffff1673ffffffffffffffffffffffffffffffffffffffff166108fc829081150290604051600060405180830381858888f19350505050158015611b8e573d6000803e3d6000fd5b50505050505050565b60405180610240016040528060025481526020018881526020018773ffffffffffffffffffffffffffffffffffffffff1681526020018773ffffffffffffffffffffffffffffffffffffffff168152602001868152602001858152602001848152602001838152602001600254890181526020018281526020016000815260200160008152602001600081526020016000815260200160006007811115611c3a57fe5b8152602001600073ffffffffffffffffffffffffffffffffffffffff168152602001600073ffffffffffffffffffffffffffffffffffffffff168152602001600073ffffffffffffffffffffffffffffffffffffffff1681525060036000898152602001908152602001600020600082015181600001556020820151816001015560408201518160020160006101000a81548173ffffffffffffffffffffffffffffffffffffffff021916908373ffffffffffffffffffffffffffffffffffffffff16021790555060608201518160030160006101000a81548173ffffffffffffffffffffffffffffffffffffffff021916908373ffffffffffffffffffffffffffffffffffffffff1602179055506080820151816004019080519060200190611d65929190612a8c565b5060a0820151816005019080519060200190611d82929190612a8c565b5060c0820151816006019080519060200190611d9f929190612a8c565b5060e0820151816007019080519060200190611dbc929190612a8c565b506101008201518160080155610120820151816009019080519060200190611de5929190612a8c565b5061014082015181600a015561016082015181600b015561018082015181600c01556101a082015181600d01556101c082015181600e0160006101000a81548160ff02191690836007811115611e3757fe5b02179055506101e082015181600e0160016101000a81548173ffffffffffffffffffffffffffffffffffffffff021916908373ffffffffffffffffffffffffffffffffffffffff16021790555061020082015181600f0160006101000a81548173ffffffffffffffffffffffffffffffffffffffff021916908373ffffffffffffffffffffffffffffffffffffffff1602179055506102208201518160100160006101000a81548173ffffffffffffffffffffffffffffffffffffffff021916908373ffffffffffffffffffffffffffffffffffffffff1602179055509050506001600254016002819055507f8e55ccfc9778ff8eba1646d765cf1982537ce0f9257054a17b48aad745250183876040518082815260200191505060405180910390a150505050505050565b8160046007811115611f7157fe5b60036000838152602001908152602001600020600e0160009054906101000a900460ff166007811115611fa057fe5b14612013576040517f08c379a00000000000000000000000000000000000000000000000000000000081526004018080602001828103825260168152602001807f6974656d207374617465206973206e6f7420736f6c640000000000000000000081525060200191505060405180910390fd5b60036000848152602001908152602001600020600e0160019054906101000a900473ffffffffffffffffffffffffffffffffffffffff168073ffffffffffffffffffffffffffffffffffffffff163373ffffffffffffffffffffffffffffffffffffffff16146120ce576040517f08c379a0000000000000000000000000000000000000000000000000000000008152600401808060200182810382526026815260200180612b326026913960400191505060405180910390fd5b600060036000868152602001908152602001600020600d015490508360036000878152602001908152602001600020600b018190555083810160036000878152602001908152602001600020600d01819055505050505050565b806003600781111561213657fe5b60036000838152602001908152602001600020600e0160009054906101000a900460ff16600781111561216557fe5b146121d8576040517f08c379a000000000000000000000000000000000000000000000000000000000815260040180806020018281038252601a8152602001807f6974656d207374617465206973206e6f7420666f722073616c6500000000000081525060200191505060405180910390fd5b60036000838152602001908152602001600020600d015480341015612265576040517f08c379a00000000000000000000000000000000000000000000000000000000081526004018080602001828103825260188152602001807f7061696420616d6f756e7420696e73756666696369656e74000000000000000081525060200191505060405180910390fd5b82600460036000868152602001908152602001600020600e0160006101000a81548160ff0219169083600781111561229957fe5b0217905550336003600086815260200190815260200160002060020160006101000a81548173ffffffffffffffffffffffffffffffffffffffff021916908373ffffffffffffffffffffffffffffffffffffffff1602179055503360036000868152602001908152602001600020600e0160016101000a81548173ffffffffffffffffffffffffffffffffffffffff021916908373ffffffffffffffffffffffffffffffffffffffff1602179055506003600085815260200190815260200160002060030160009054906101000a900473ffffffffffffffffffffffffffffffffffffffff1673ffffffffffffffffffffffffffffffffffffffff166108fc60036000878152602001908152602001600020600d01549081150290604051600060405180830381858888f193505050501580156123da573d6000803e3d6000fd5b507f92f64ca637d023f354075a4be751b169c1a8a9ccb6d33cdd0cb3520543995727846040518082815260200191505060405180910390a1600060036000838152602001908152602001600020600d01549050600081340390506003600084815260200190815260200160002060020160009054906101000a900473ffffffffffffffffffffffffffffffffffffffff1673ffffffffffffffffffffffffffffffffffffffff166108fc829081150290604051600060405180830381858888f193505050501580156124b0573d6000803e3d6000fd5b50505050505050565b81600260078111156124c757fe5b60036000838152602001908152602001600020600e0160009054906101000a900460ff1660078111156124f657fe5b14612569576040517f08c379a00000000000000000000000000000000000000000000000000000000081526004018080602001828103825260198152602001807f6974656d207374617465206973206e6f7420626f74746c65640000000000000081525060200191505060405180910390fd5b6003600084815260200190815260200160002060020160009054906101000a900473ffffffffffffffffffffffffffffffffffffffff168073ffffffffffffffffffffffffffffffffffffffff163373ffffffffffffffffffffffffffffffffffffffff1614612624576040517f08c379a0000000000000000000000000000000000000000000000000000000008152600401808060200182810382526026815260200180612b326026913960400191505060405180910390fd5b8260036000868152602001908152602001600020600a01819055508260036000868152602001908152602001600020600d01819055506003806000868152602001908152602001600020600e0160006101000a81548160ff0219169083600781111561268c57fe5b02179055507fa96ae0fc3224ebd79eebfe54bd130cc9cb94416cddd1f2386115e00b72532468846040518082815260200191505060405180910390a150505050565b80600060078111156126dc57fe5b60036000838152602001908152602001600020600e0160009054906101000a900460ff16600781111561270b57fe5b1461277e576040517f08c379a000000000000000000000000000000000000000000000000000000000815260040180806020018281038252601b8152602001807f6974656d207374617465206973206e6f7420686172766573746564000000000081525060200191505060405180910390fd5b6003600083815260200190815260200160002060020160009054906101000a900473ffffffffffffffffffffffffffffffffffffffff168073ffffffffffffffffffffffffffffffffffffffff163373ffffffffffffffffffffffffffffffffffffffff1614612839576040517f08c379a0000000000000000000000000000000000000000000000000000000008152600401808060200182810382526026815260200180612b326026913960400191505060405180910390fd5b600160036000858152602001908152602001600020600e0160006101000a81548160ff0219169083600781111561286c57fe5b02179055507f5afe3b1bf87069693c075da5c22a98d63d1aef98a30dbbe538d0781a98b77ee5836040518082815260200191505060405180910390a1505050565b80600460078111156128bb57fe5b60036000838152602001908152602001600020600e0160009054906101000a900460ff1660078111156128ea57fe5b1461295d576040517f08c379a00000000000000000000000000000000000000000000000000000000081526004018080602001828103825260168152602001807f6974656d207374617465206973206e6f7420736f6c640000000000000000000081525060200191505060405180910390fd5b6003600083815260200190815260200160002060020160009054906101000a900473ffffffffffffffffffffffffffffffffffffffff168073ffffffffffffffffffffffffffffffffffffffff163373ffffffffffffffffffffffffffffffffffffffff1614612a18576040517f08c379a0000000000000000000000000000000000000000000000000000000008152600401808060200182810382526026815260200180612b326026913960400191505060405180910390fd5b600560036000858152602001908152602001600020600e0160006101000a81548160ff02191690836007811115612a4b57fe5b02179055507ff00b9a5725b80c54016f42114f6ed7792d22eecb116011c4afac29c57bef6c95836040518082815260200191505060405180910390a1505050565b828054600181600116156101000203166002900490600052602060002090601f016020900481019282601f10612acd57805160ff1916838001178555612afb565b82800160010185558215612afb579182015b82811115612afa578251825591602001919060010190612adf565b5b509050612b089190612b0c565b5090565b612b2e91905b80821115612b2a576000816000905550600101612b12565b5090565b9056fe74686973206163636f756e742063616e6e6f742063616c6c20746869732066756e6374696f6ea165627a7a72305820c731b2a8ad5fc8019aecd03ec5621387c6a2d2c395535ec91f07d0367200cfa30029",
  "source": "pragma solidity ^0.5.8;\n// Define a contract 'Supplychain'\ncontract SupplyChain {\n    // Define 'owner'\n    address payable owner;\n\n    // Define a variable called 'upc' for Universal Product Code (UPC)\n    uint256 upc;\n\n    // Define a variable called 'sku' for Stock Keeping Unit (SKU)\n    uint256 sku;\n\n    // Define a public mapping 'items' that maps the UPC to an Item.\n    mapping(uint256 => Item) items;\n\n    // Define a public mapping 'itemsHistory' that maps the UPC to an array of TxHash,\n    // that track its journey through the supply chain -- to be sent from DApp.\n    mapping(uint256 => string[]) itemsHistory;\n\n    // Define enum 'State' with the following values:\n    enum State {\n        Harvested, // 0\n        Processed, // 1\n        Bottled, // 2\n        ForSale, // 3\n        Sold, // 4\n        Shipped, // 5\n        Received, // 6\n        Purchased // 7\n    }\n\n    State constant defaultState = State.Harvested;\n\n    // Define a struct 'Item' with the following fields:\n    struct Item {\n        uint256 sku; // Stock Keeping Unit (SKU)\n        uint256 upc; // Universal Product Code (UPC), generated by the Farmer, goes on the bottle, can be verified by the Consumer\n        address payable ownerID; // Metamask-Ethereum address of the current owner as the product moves through 8 stages\n        address payable originFarmerID; // Metamask-Ethereum address of the Farmer\n        string originFarmName; // Farmer Name\n        string originFarmInformation; // Farmer Information\n        string originFarmLatitude; // Farm Latitude\n        string originFarmLongitude; // Farm Longitude\n        uint256 productID; // Product ID potentially a combination of upc + sku\n        string productNotes; // Product Notes\n        uint256 productPrice; // Product Price\n        uint256 distributorFee;\n        uint256 retailerFee;\n        uint256 productTotalPrice;\n        State itemState; // Product State as represented in the enum above\n        address payable distributorID; // Metamask-Ethereum address of the Distributor\n        address payable retailerID; // Metamask-Ethereum address of the Retailer\n        address consumerID; // Metamask-Ethereum address of the Consumer\n    }\n\n    // Define 8 events with the same 8 state values and accept 'upc' as input argument\n    event Harvested(uint256 upc);\n    event Processed(uint256 upc);\n    event Bottled(uint256 upc);\n    event ForSale(uint256 upc);\n    event Sold(uint256 upc);\n    event Shipped(uint256 upc);\n    event Received(uint256 upc);\n    event Purchased(uint256 upc);\n\n    // Define a modifer that checks to see if msg.sender == owner of the contract\n    modifier onlyOwner() {\n        require(\n            msg.sender == owner,\n            \"only the owner of the contract can call this function\"\n        );\n        _;\n    }\n\n    // Define a modifer that verifies the Caller\n    modifier verifyCaller(address _address) {\n        require(\n            msg.sender == _address,\n            \"this account cannot call this function\"\n        );\n        _;\n    }\n\n    // Define a modifier that checks if the paid amount is sufficient to cover the price\n    modifier paidEnough(uint256 _price) {\n        require(msg.value >= _price, \"paid amount insufficient\");\n        _;\n    }\n\n    // Define a modifier that checks the price and refunds the remaining balance\n    modifier checkValue(uint256 _upc) {\n        _;\n        uint256 _price = items[_upc].productTotalPrice;\n        uint256 amountToReturn = msg.value - _price;\n\n        // TODO: maybe this should be consumerID\n        items[_upc].ownerID.transfer(amountToReturn);\n    }\n\n    // Define a modifier that checks if an item.state of a upc is Harvested\n    modifier harvested(uint256 _upc) {\n        require(\n            items[_upc].itemState == State.Harvested,\n            \"item state is not harvested\"\n        );\n        _;\n    }\n\n    // Define a modifier that checks if an item.state of a upc is Processed\n    modifier processed(uint256 _upc) {\n        require(\n            items[_upc].itemState == State.Processed,\n            \"item state is not processed\"\n        );\n        _;\n    }\n\n    // Define a modifier that checks if an item.state of a upc is Bottled\n    modifier bottled(uint256 _upc) {\n        require(\n            items[_upc].itemState == State.Bottled,\n            \"item state is not bottled\"\n        );\n        _;\n    }\n\n    // Define a modifier that checks if an item.state of a upc is ForSale\n    modifier forSale(uint256 _upc) {\n        require(\n            items[_upc].itemState == State.ForSale,\n            \"item state is not for sale\"\n        );\n        _;\n    }\n\n    // Define a modifier that checks if an item.state of a upc is Sold\n    modifier sold(uint256 _upc) {\n        require(items[_upc].itemState == State.Sold, \"item state is not sold\");\n        _;\n    }\n\n    // Define a modifier that checks if an item.state of a upc is Shipped\n    modifier shipped(uint256 _upc) {\n        require(\n            items[_upc].itemState == State.Shipped,\n            \"item state is not shipped\"\n        );\n        _;\n    }\n\n    // Define a modifier that checks if an item.state of a upc is Received\n    modifier received(uint256 _upc) {\n        require(\n            items[_upc].itemState == State.Received,\n            \"item state is not received\"\n        );\n        _;\n    }\n\n    // Define a modifier that checks if an item.state of a upc is Purchased\n    modifier purchased(uint256 _upc) {\n        require(\n            items[_upc].itemState == State.Purchased,\n            \"item state is not purchased\"\n        );\n        _;\n    }\n\n    // In the constructor set 'owner' to the address that instantiated the contract\n    // and set 'sku' to 1\n    // and set 'upc' to 1\n    constructor() public payable {\n        owner = msg.sender;\n        sku = 1;\n        upc = 1;\n    }\n\n    // Define a function 'kill' if required\n    function kill() public {\n        if (msg.sender == owner) {\n            selfdestruct(owner);\n        }\n    }\n\n    // Define a function 'harvestOlives' that allows a farmer to mark an item 'Harvested'\n    function harvestOlives(\n        uint256 _upc,\n        address payable _originFarmerID,\n        string memory _originFarmName,\n        string memory _originFarmInformation,\n        string memory _originFarmLatitude,\n        string memory _originFarmLongitude,\n        string memory _productNotes\n    ) public {\n        // Add the new item as part of Harvest\n        items[_upc] = Item({\n            sku: sku,\n            upc: _upc,\n            ownerID: _originFarmerID,\n            originFarmerID: _originFarmerID,\n            originFarmName: _originFarmName,\n            originFarmInformation: _originFarmInformation,\n            originFarmLatitude: _originFarmLatitude,\n            originFarmLongitude: _originFarmLongitude,\n            productID: _upc + sku,\n            productNotes: _productNotes,\n            productPrice: 0,\n            distributorFee: 0,\n            retailerFee: 0,\n            productTotalPrice: 0,\n            itemState: State.Harvested,\n            distributorID: address(0),\n            retailerID: address(0),\n            consumerID: address(0)\n        });\n\n        // Increment sku\n        sku = sku + 1;\n        // Emit the appropriate event\n        emit Harvested(_upc);\n    }\n\n    // Define a function 'processOlives' that allows a farmer to mark an item 'Processed'\n    function processOlives(uint256 _upc)\n        public\n        // Call modifier to check if upc has passed previous supply chain stage\n        harvested(_upc)\n        // Call modifier to verify caller of this function\n        verifyCaller(items[_upc].ownerID)\n    {\n        // Update the appropriate fields\n        items[_upc].itemState = State.Processed;\n\n        // Emit the appropriate event\n        emit Processed(_upc);\n    }\n\n    // Define a function 'bottleOil' that allows a farmer to mark an item 'Bottled'\n    function bottleOil(uint256 _upc)\n        public\n        // Call modifier to check if upc has passed previous supply chain stage\n        processed(_upc)\n        // Call modifier to verify caller of this function\n        verifyCaller(items[_upc].ownerID)\n    {\n        // Update the appropriate fields\n        items[_upc].itemState = State.Bottled;\n\n        // Emit the appropriate event\n        emit Bottled(_upc);\n    }\n\n    // Define a function 'sellOil' that allows a farmer to mark an item 'ForSale'\n    function sellOil(uint256 _upc, uint256 _price)\n        public\n        // Call modifier to check if upc has passed previous supply chain stage\n        bottled(_upc)\n        // Call modifier to verify caller of this function\n        verifyCaller(items[_upc].ownerID)\n    {\n        // Update the appropriate fields\n        items[_upc].productPrice = _price;\n        items[_upc].productTotalPrice = _price;\n        items[_upc].itemState = State.ForSale;\n\n        // Emit the appropriate event\n        emit ForSale(_upc);\n    }\n\n    // TODO: Why is distributor calling this?\n    // Define a function 'buyOil' that allows the distributor to mark an item 'Sold'\n    // Use the above defined modifiers to check if the item is available for sale, if the buyer has paid enough,\n    // and any excess ether sent is refunded back to the buyer\n    function buyOil(uint256 _upc)\n        public\n        payable\n        // Call modifier to check if upc has passed previous supply chain stage\n        forSale(_upc)\n        // Call modifer to check if buyer has paid enough\n        paidEnough(items[_upc].productTotalPrice)\n        // Call modifer to send any excess ether back to buyer\n        checkValue(_upc)\n    {\n        // Update the appropriate fields - ownerID, distributorID, itemState\n        items[_upc].itemState = State.Sold;\n        items[_upc].ownerID = msg.sender;\n        items[_upc].distributorID = msg.sender;\n\n        // Transfer money to farmer\n        items[_upc].originFarmerID.transfer(items[_upc].productTotalPrice);\n\n        // emit the appropriate event\n        emit Sold(_upc);\n    }\n\n    function addDistributorFee(uint256 _upc, uint256 _fee)\n        public\n        // Call modifier to check if upc has passed previous supply chain stage\n        sold(_upc)\n        // Call modifier to verify caller of this function\n        verifyCaller(items[_upc].distributorID)\n    {\n        // Update price\n        uint256 _price = items[_upc].productTotalPrice;\n        items[_upc].distributorFee = _fee;\n        items[_upc].productTotalPrice = _price + _fee;\n    }\n\n    // Define a function 'shipOil' that allows the distributor to mark an item 'Shipped'\n    // Use the above modifers to check if the item is sold\n    function shipOil(uint256 _upc)\n        public\n        // Call modifier to check if upc has passed previous supply chain stage\n        sold(_upc)\n        // Call modifier to verify caller of this function\n        verifyCaller(items[_upc].ownerID)\n    {\n        // Update the appropriate fields\n        items[_upc].itemState = State.Shipped;\n\n        // Emit the appropriate event\n        emit Shipped(_upc);\n    }\n\n    // Define a function 'receiveOil' that allows the retailer to mark an item 'Received'\n    // Use the above modifiers to check if the item is shipped\n    function receiveOil(uint256 _upc)\n        public\n        payable\n        // Call modifier to check if upc has passed previous supply chain stage\n        shipped(_upc)\n        // Call modifer to check if buyer has paid enough\n        paidEnough(items[_upc].productTotalPrice)\n        // Call modifer to send any excess ether back to buyer\n        checkValue(_upc)\n    {\n        // Update the appropriate fields - ownerID, retailerID, itemState\n        items[_upc].itemState = State.Received;\n        items[_upc].ownerID = msg.sender;\n        items[_upc].retailerID = msg.sender;\n\n        // Transfer money to owner\n        items[_upc].distributorID.transfer(items[_upc].productTotalPrice);\n\n        // Emit the appropriate event\n        emit Received(_upc);\n    }\n\n    function addRetailerFee(uint256 _upc, uint256 _fee)\n        public\n        // Call modifier to check if upc has passed previous supply chain stage\n        received(_upc)\n        // Call modifier to verify caller of this function\n        verifyCaller(items[_upc].retailerID)\n    {\n        // Update price\n        uint256 _price = items[_upc].productTotalPrice;\n        items[_upc].retailerFee = _fee;\n        items[_upc].productTotalPrice = _price + _fee;\n    }\n\n    // Define a function 'purchaseOil' that allows the consumer to mark an item 'Purchased'\n    // Use the above modifiers to check if the item is received\n    function purchaseOil(uint256 _upc)\n        public\n        payable\n        // Call modifier to check if upc has passed previous supply chain stage\n        received(_upc)\n        // Call modifer to check if buyer has paid enough\n        paidEnough(items[_upc].productTotalPrice)\n        // Call modifer to send any excess ether back to buyer\n        checkValue(_upc)\n    {\n        // Update the appropriate fields - ownerID, consumerID, itemState\n        items[_upc].itemState = State.Purchased;\n        items[_upc].ownerID = msg.sender;\n        items[_upc].consumerID = msg.sender;\n\n        // Transfer money to owner\n        items[_upc].retailerID.transfer(items[_upc].productTotalPrice);\n\n        // Emit the appropriate event\n        emit Purchased(_upc);\n    }\n\n    // Define a function 'fetchItemBufferOne' that fetches the data\n    function fetchItemBufferOne(uint256 _upc)\n        public\n        view\n        returns (\n            uint256 itemSKU,\n            uint256 itemUPC,\n            address ownerID,\n            address originFarmerID,\n            string memory originFarmName,\n            string memory originFarmInformation,\n            string memory originFarmLatitude,\n            string memory originFarmLongitude\n        )\n    {\n        // Assign values to the 8 parameters\n        itemSKU = items[_upc].sku;\n        itemUPC = items[_upc].upc;\n        ownerID = items[_upc].ownerID;\n        originFarmerID = items[_upc].originFarmerID;\n        originFarmName = items[_upc].originFarmName;\n        originFarmInformation = items[_upc].originFarmInformation;\n        originFarmLatitude = items[_upc].originFarmLatitude;\n        originFarmLongitude = items[_upc].originFarmLongitude;\n\n        return (\n            itemSKU,\n            itemUPC,\n            ownerID,\n            originFarmerID,\n            originFarmName,\n            originFarmInformation,\n            originFarmLatitude,\n            originFarmLongitude\n        );\n    }\n\n    // Define a function 'fetchItemBufferTwo' that fetches the data\n    function fetchItemBufferTwo(uint256 _upc)\n        public\n        view\n        returns (\n            uint256 itemSKU,\n            uint256 itemUPC,\n            uint256 productID,\n            string memory productNotes,\n            uint256 productPrice,\n            uint256 distributorFee,\n            uint256 retailerFee,\n            uint256 productTotalPrice,\n            uint256 itemState,\n            address distributorID,\n            address retailerID,\n            address consumerID\n        )\n    {\n        // Assign values to the 12 parameters\n        itemSKU = items[_upc].sku;\n        itemUPC = items[_upc].upc;\n        productID = items[_upc].productID;\n        productNotes = items[_upc].productNotes;\n        productPrice = items[_upc].productPrice;\n        distributorFee = items[_upc].distributorFee;\n        retailerFee = items[_upc].retailerFee;\n        productTotalPrice = items[_upc].productTotalPrice;\n        itemState = uint256(items[_upc].itemState);\n        distributorID = items[_upc].distributorID;\n        retailerID = items[_upc].retailerID;\n        consumerID = items[_upc].consumerID;\n\n        return (\n            itemSKU,\n            itemUPC,\n            productID,\n            productNotes,\n            productPrice,\n            distributorFee,\n            retailerFee,\n            productTotalPrice,\n            itemState,\n            distributorID,\n            retailerID,\n            consumerID\n        );\n    }\n}\n",
  "sourcePath": "/Users/laurent/Repos/Udacity/Nanodegrees/Blockchain Developer/nd1309-Project-6b-Example-Template/project-6/contracts/base/SupplyChain.sol",
  "compiler": {
    "name": "solc",
    "version": "0.5.8+commit.23d335f2.Emscripten.clang"
  },
  "schemaVersion": "3.0.11",
  "updatedAt": "2019-09-01T22:13:43.281Z",
  "devdoc": {
    "methods": {}
  },
  "userdoc": {
    "methods": {}
  }
}